:100000000C94301F0C94611F0C94611F0C94611FA1
:100010000C94611F0C94611F0C94611F0C94611F60
:100020000C94611F0C94611F0C94611F0C94611F50
:100030000C94611F0C94996D0C94611F0C94611FBA
:100040000C94611F0C94D9900C94611F0C94611F47
:100050000C94611F0C94611F0C9454C80D94AE1243
:100060000C94611F0C94A13C0C94611F0C94611FB3
:100070000C94611F0C94611F0C94611F0C94611F00
:100080000C94F7360C94611F0C94611F0C94611F43
:100090000C94611F0C94611F0C94611F0C94611FE0
:1000A0000C94611F0C94611F0C94CA360C94611F50
:1000B0000C94611F0C94611F0C94611F0C949D366D
:1000C0000C94611F0C94611F0C94611F0C94611FB0
:1000D0000C94611F0C94611F0C94611F0C94611FA0
:1000E0000C94611FFDEBE3EBE6EBE9EBECEBF8EBDB
:1000F000EFEB09ECF2EBF5EBF6FA66F99EF930FB63
:100100009EF99EF99EF99EF99EF99EF99EF99EF937
:100110009EF99EF99EF99EF99EF99EF99EF99EF927
:100120009EF99EF99EF99EF99EF99EF99EF99EF917
:100130009EF99EF92BFB9EF99EF99EF99EF99EF978
:100140009EF99EF99EF904FB9EF99EF99EF99EF98F
:100150009EF99EF99EF99EF99EF99EF947FB9BF93F
:100160002601320136013E011A010A014401300123
:10017000220118012001FE003A0140010A011C0180
:10018000140110013C010C010401FA002A010601CE
:100190000801FC00340100011E01380102011601B2
:1001A0000601460142012C01084AD73B3BCE016EB5
:1001B00084BCBFFDC12F3D6C74319ABD56833DDABE
:1001C0003D00C77F11BED9E4BB4C3E916BAAAABECD
:1001D000000000803F05A84CCDB2D44EB93836A9F6
:1001E000020C50B9918688083CA6AAAA2ABE000033
:1001F00000803F000D94DE110D94FA110D9415103E
:100200000D940C120D942F120D94D4110D946112B3
:100210000D94F2110D9430100D94CF110D94D81649
:100220000D942B100D9469080D9427100D9439121C
:100230000D940B100D94F20F0D9423100D941612C3
:100240000D940F100D9407100D94DC1D0D94F60FF6
:100250000D946C080D94E8110D9457120D946808D4
:100260000D9401100D94F90F0D9402120D94E80FE6
:100270000D9420120D9419100D94CA110D94EC0FC9
:100280000D941D100D944D120D94FD0F0D944312FD
:100290004E414E494E495459494E46CDCCCC3D0A6B
:1002A000D7233C17B7D13877CC2B329595E6241F4E
:1002B000B14F0A000020410000C84200401C462007
:1002C000BCBE4CCA1B0E5AAEC59D74434F4D4D5516
:1002D0004E49434154494F4E0044525952554E00E5
:1002E0004552524F525300494E464F004543484FE6
:1002F00000536C6565702E2E2E00205A3A20002087
:10030000593A200042656420583A20004D657368D0
:1003100020706F696E742063616E6E6F7420626509
:10032000207265736F6C7665640A00436C69636B59
:1003300020746F20726573756D652E2E2E004E6FC2
:10034000206D6F76652E00456E642066696C6520B1
:100350006C6973740A00426567696E2066696C6532
:10036000206C6973740A004D31323500286E6F209D
:1003700066696C65290043757272656E74206669E2
:100380006C653A20005344207072696E74696E6720
:10039000206279746520004E6F742053442070727F
:1003A000696E74696E670A0044656C6574696F6E86
:1003B000206661696C65642C2046696C653A200092
:1003C00046696C652064656C657465643A005072BA
:1003D000696E742074696D653A20006F666600EC82
:1003E00002E702E002D902CB0244454255473A00F7
:1003F0004B494C4C45442E20004D313133205300A5
:100400006F6B005465766F204E657265757320477B
:10041000454E2D4C204F66662E00544845524D41A6
:100420004C5F50524F54454354494F4E0041555430
:100430004F5245504F52545F53445F5354415455AB
:100440005300454D455247454E43595F5041525325
:10045000455200434153455F4C494748545F42521F
:10046000494748544E45535300544F47474C455F06
:100470004C494748545300534F4654574152455FE7
:10048000504F574552004255494C445F50455243E6
:10049000454E54004C4556454C494E475F444154E7
:1004A00041005A5F50524F4245004155544F4C4510
:1004B00056454C005052494E545F4A4F42005052EC
:1004C0004F4752455353004155544F5245504F5298
:1004D000545F54454D5000564F4C554D455452496C
:1004E0004300454550524F4D0053455249414C5FE2
:1004F000584F4E5F584F4646004649524D5741525D
:10050000455F4E414D453A4D61726C696E20627592
:10051000676669782D322E302E78202847697468F6
:1005200075622920534F555243455F434F44455F01
:1005300055524C3A68747470733A2F2F6769746817
:1005400075622E636F6D2F4D61726C696E466972B4
:100550006D776172652F4D61726C696E2050524FDC
:10056000544F434F4C5F56455253494F4E3A312EEC
:1005700030204D414348494E455F545950453A5407
:1005800065766F204E65726575732047454E2D4C1C
:100590002045585452554445525F434F554E543AA6
:1005A0003120555549443A63656465326132662DA0
:1005B000343161322D343734382D396231322D6384
:1005C00035356336326633363766660A002F2F209C
:1005D000004D31343520533C696E6465783E206FA0
:1005E0007574206F662072616E67652028302D312A
:1005F000290A00205400205200416363656C657233
:100600006174696F6E3A2050005741524E494E470F
:1006100021204C6F77205A204A65726B206D6179DA
:10062000206C65616420746F20756E77616E7465EF
:1006300064207061757365732E0A004F6666004F03
:100640006E2000205A00205900580020204D61786B
:100650003A2000205A00205900580020204D696E91
:100660003A2000536F667420656E6473746F707304
:100670003A200020466C6F773A200050726F746504
:10068000637465642050696E0A00206F7574206F72
:10069000662072616E67650A00536572766F20008E
:1006A0003A200020536572766F200020643A0020C3
:1006B000693A0020703A00496E76616C6964206581
:1006C000787472756465720A0043290A0061626C6D
:1006D000656420286D696E2074656D702000436F1D
:1006E0006C6420657874727564657320617265202E
:1006F000004D65736820706F696E742063616E6E63
:100700006F74206265207265736F6C7665640A0091
:100710004D34323120696E636F727265637420707C
:100720006172616D657465722075736167650A0039
:100730004F666673657473206170706C69656400E0
:100740004572723A20546F6F206661722100546FB7
:100750006F206661722066726F6D207265666572C9
:10076000656E636520706F696E740A00454550526E
:100770004F4D204F4B0A003F5A206F7574206F6613
:100780002072616E676520282D323020746F203210
:1007900030290A003A200050726F6265205A204FBB
:1007A0006666736574003F4B2076616C7565206FDB
:1007B0007574206F662072616E67652028302D3158
:1007C00030292E0A00416476616E6365204B3D003E
:1007D0004E6F2063617365206C696768740A004915
:1007E0006E76616C69642065787472756465720AEE
:1007F000004163746976652045787472756465722A
:100800003A20004572726F722077726974696E6760
:1008100020746F20454550524F4D210A003637262F
:1008200003FFFFFF3B3C3D380EFFFFFF3F2E303EF6
:1008300012FFFFFFFF28FF0C080907FFFF1A1C1813
:10084000FFFF2A08440A07430001627573793A20C2
:1008500070617573656420666F7220696E7075745F
:100860000A00627573793A20706175736564206659
:100870006F7220757365720A00627573793A207021
:10088000726F63657373696E670A004B494C4C4520
:10089000442E20004B494C4C2063617573656420E5
:1008A0006279204B494C4C20627574746F6E2F70C6
:1008B000696E0A004B494C4C45442E20004B494C74
:1008C0004C2063617573656420627920746F6F20BA
:1008D0006D75636820696E616374697665207469FB
:1008E0006D65202D2063757272656E7420636F6D67
:1008F0006D616E643A2000506C65617365207265AD
:10090000736574005052494E5445522048414C542E
:100910004544005072696E7465722068616C74653C
:10092000642E206B696C6C28292063616C6C656493
:10093000210A004578747275646572004D6F7665A2
:10094000205A004D6F76652059004D6F766520580E
:10095000004D6F74696F6E00496E697469616C69EE
:100960007A6520454550524F4D00416476616E6373
:1009700065642053657474696E6773004C6F6164BD
:100980002073657474696E677300526573746F7257
:1009900065206661696C736166650053746F72658A
:1009A0002073657474696E67730050726568656161
:1009B000742041425320636F6E6600507265686513
:1009C000617420504C4120636F6E6600424C546F3E
:1009D00075636800416476616E6365642053657475
:1009E00074696E6773004D61696E00507265686569
:1009F00061742041425300507265686561742050F3
:100A00004C4100436F6F6C646F776E0046616E20DF
:100A100073706565640046616E207370656564007F
:100A200046616E20737065656400426564004265CE
:100A30006400426564004E6F7A7A6C65004E6F7A8E
:100A40007A6C65004E6F7A7A6C65004D61696E0054
:100A50005049442D44005049442D44005049442DF0
:100A600049005049442D49005049442D50005049F7
:100A7000442D500020082046616374002008204661
:100A8000616374002008204D6178002008204D61CA
:100A900078002008204D6178002008204D696E0004
:100AA0002008204D696E002008204D696E004F66B9
:100AB00066004F6E20004175746F74656D70004163
:100AC0006476616E6365642053657474696E6773E0
:100AD0000053746F72652073657474696E67730078
:100AE0004265640042656400426564004E6F7A7A34
:100AF0006C65004E6F7A7A6C65004E6F7A7A6C6521
:100B00000046616E2073706565640046616E2073F7
:100B1000706565640046616E2073706565640043AE
:100B20006F6E66696775726174696F6E00004578F3
:100B300074727564656420746F74616C3A2000256A
:100B40006C642E25696D00004C6F6E6765737420B0
:100B50006A6F622074696D653A200000546F746199
:100B60006C207072696E742074696D653A20004360
:100B70006F6D706C657465643A20005072696E74B4
:100B800020436F756E743A20004D61782054656D76
:100B9000703A20313530004D696E2054656D703AE1
:100BA000203500544265643A4550434F532031305C
:100BB000304B004D61782054656D703A20323735E6
:100BC000004D696E2054656D703A20350054303AFE
:100BD000204550434F53203130304B005053553A4D
:100BE0002047656E657269630050726F746F636F42
:100BF0006C3A20312E3000426175643A2032353033
:100C0000303030004D4B532047454E204C00426958
:100C10006C696E656172204C6576656C696E670003
:100C20004578747275646572733A20310068747423
:100C3000703A2F2F6D61726C696E66772E6F7267D6
:100C4000005465766F204E65726575732047454E7A
:100C50002D4C00323031382D30312D32300062755C
:100C6000676669782D322E302E78004D61726C697E
:100C70006E005072696E74657220537461747300F3
:100C8000546865726D6973746F727300426F61723C
:100C90006420496E666F005072696E7465722049F7
:100CA0006E666F004D61696E004D373032205425FD
:100CB00064004D36303020423020542564004D37DA
:100CC0003032203B2564004D3730312054256400FC
:100CD0004368616E67652066696C616D656E74005E
:100CE0005072656865617420437573746F6D005050
:100CF00072656865617420437573746F6D0050721E
:100D0000656865617420437573746F6D005072651A
:100D10006865617420414253005072656865617472
:100D200020504C41004368616E67652066696C61C4
:100D30006D656E74005052494E54205041555345D4
:100D40004400554E4C4F41442046494C414D454E80
:100D500054004C4F41442046494C414D454E5400AF
:100D60005075726765206D6F726500436F6E7469B0
:100D70006E756500524553554D45204F5054494FAF
:100D80004E533A0020204E6F7A7A6C653A20006309
:100D900068616E6765006F66207468652066696CBF
:100DA000616D656E74005761697420666F7220739F
:100DB000746172740020204E6F7A7A6C653A20005C
:100DC000200066696C616D656E7420756E6C6F6174
:100DD00064005761697420666F720020204E6F7A3C
:100DE0007A6C653A20002000506C6561736520774D
:100DF0006169742E2E2E0048656174696E67206EDD
:100E00006F7A7A6C650020204E6F7A7A6C653A2092
:100E100000200068656174206E6F7A7A6C652E0020
:100E2000507265737320627574746F6E20746F00F6
:100E300020204E6F7A7A6C653A2000746F20636FC1
:100E40006E74696E75652E2E2E00616E6420707250
:100E500065737320627574746F6E00496E7365728A
:100E6000742066696C616D656E74004F66660A0079
:100E7000466164652048656967687420004265645E
:100E8000204C6576656C696E6720004661696C650B
:100E90006420746F20656E61626C65204265642019
:100EA0004C6576656C696E670A0020284452595279
:100EB000554E2900473239204175746F20426564D0
:100EC000204C6576656C696E67003F20284C2C527B
:100ED0002C462C4229206F7574206F6620626F7536
:100EE0006E64732E0A003F2856296572626F73651F
:100EF000206C6576656C20697320696D706C617516
:100F00007369626C652028302D34292E0A004261F5
:100F100064205A2076616C75650A004E6F20626904
:100F20006C696E65617220677269640A00486F6D52
:100F3000652058592066697273740A00486F6D65A0
:100F400020585920666972737400496E7365727413
:100F50002066696C616D656E7420616E64207072CC
:100F600065737320627574746F6E0A0050726573D6
:100F70007320627574746F6E20746F20686561747D
:100F8000206E6F7A7A6C650A00496E736572742000
:100F900066696C616D656E7420616E642070726547
:100FA000737320627574746F6E20286F72204D31D8
:100FB0003038290A0020496E76616C6964206578B2
:100FC000747275646572200000060C00FE07022929
:100FD00003BF017FFE08FE08FE050808060000406A
:100FE000F0C88888987810050808060000C0F888BE
:100FF00088888888F80505050600012030F830202B
:101000000508080600002070F820202020E00509CF
:10101000090600FF2070A8A8B88888702005090973
:101020000600FFE080C0B0A828302828050909067E
:1010300000FFF8A88888888888A8F8050A0A0600AA
:10104000FE205050505088A8A88870030303060063
:101050000340A040FFFFFFFFFFFFFFFFFFFFFFFF79
:10106000FFFFFFFFFFFFFFFFFFFF0000000605FF80
:101070000107070602008080808080008003030350
:10108000060105A0A0A005060606000050F8505075
:10109000F8500509090600FF2070A8A07028A87064
:1010A00020050707060000C8C810204098980507CB
:1010B0000706000040A0A040A890680103030602B4
:1010C000058080800309090601FF20404080808060
:1010D0004040200309090601FF80404020202040B5
:1010E000408005070706000020A8702070A8200592
:1010F00005050600012020F820200203030601FF59
:10110000C04080050101060003F80202020601004A
:10111000C0C00507070600000810102040408005E9
:101120000707060000708898A8C88870030707069C
:10113000010040C040404040E00507070600007045
:101140008808102040F8050707060000F80810304E
:1011500008887005070706000010305090F810103E
:10116000050707060000F880F008088870050707E3
:10117000060000304080F0888870050707060000F0
:10118000F808101020202005070706000070888846
:101190007088887005070706000070888878081036
:1011A00060020505060100C0C000C0C002060606B8
:1011B00001FFC0C000C040800305050601012040BA
:1011C000804020050303060002F800F80305050629
:1011D000010180402040800507070600007088104C
:1011E000202000200507070600007088B8A8B880F6
:1011F00070050707060000708888F888888805074A
:1012000007060000F04848704848F0050707060048
:101210000070888080808870050707060000F0480D
:1012200048484848F0050707060000F88080F0802D
:1012300080F8050707060000F88080F080808005B0
:1012400007070600007088808098887005070706E9
:101250000000888888F8888888030707060100E06E
:101260004040404040E005070706000038101010DD
:101270001090600507070600008890A0C0A0908825
:10128000050707060000808080808080F80507073A
:1012900006000088D8A88888888805070706000007
:1012A0008888C8A89888880507070600007088887D
:1012B00088888870050707060000F08888F080801D
:1012C0008005070706000070888888A890680507D1
:1012D00007060000F08888F0A09088050707060040
:1012E0000070888070088870050707060000F820E5
:1012F000202020202005070706000088888888888D
:1013000088700507070600008888888850502005E7
:10131000070706000088888888A8A85005070706E0
:10132000000088885020508888050707060000883C
:10133000885020202020050707060000F80810200C
:101340004080F80309090601FFE0808080808080EA
:1013500080E00507070600008040402010100803C9
:1013600009090601FFE020202020202020E00503BD
:10137000030600052050880501010600FEF803035E
:101380000306010580402005050506000070087869
:1013900088780507070600008080F0888888F005B7
:1013A00005050600007080808870050707060000AC
:1013B000080878888888780505050600007088F098
:1013C0008070050707060000304840E040404005B7
:1013D00007070600FE7088888878087005070706EA
:1013E00000008080F0888888880307070601004095
:1013F00000C0404040E00409090601FE1000301022
:10140000101010906005070706000080808890E0AB
:101410009088030707060100C04040404040E005B7
:101420000505060000D0A8A8A8A805050506000027
:10143000B0C888888805050506000070888888700F
:101440000507070600FEF0888888F08080050707FA
:101450000600FE78888888780808050505060000DB
:10146000B0C880808005050506000078807008F00F
:101470000507070600002020F82020201805050594
:101480000600008888889868050505060000888899
:101490008850200505050600008888A8A850050585
:1014A0000506000088502050880507070600FE88C2
:1014B000888850204080050505060000F81020406F
:1014C000F80309090601FF204040408040404020C9
:1014D0000109090602FF808080808080808080036F
:1014E00009090601FF80404040204040408005033C
:1014F0000306000248A890FF290A0020627974655B
:10150000733B20637263200053657474696E677364
:101510002053746F72656420280042696C696E659F
:101520006172204C6576656C696E672047726964EC
:101530003A0A004D3630303A20546F6F20636F6C9A
:101540006400486F74656E6420746F6F20636F6C05
:10155000640A002F2F616374696F6E3A706175734E
:10156000650A00020000000000000000000000000A
:10157000000000000000000000000000000000006B
:10158000000000000000000000000000000000005B
:1015900000000000000001FFFF000000000000004C
:1015A000000000000001FFFFFFFF0000000000003E
:1015B00000000000001FFFFFFFFFF0000000000020
:1015C0000000000000FFE000FFFFFE000000000040
:1015D0000000000003F00000003FFFC0000000001A
:1015E00000000000078000000000FFE00000000095
:1015F000000000000E07FC0000000FF000000000DB
:10160000000000000CFF0000000001F800000000D6
:10161000000000000FE00000000000780000000063
:10162000000000000FC000000000003800000000B3
:101630000000000007C000000001E0700000000092
:101640000000000001E0000000007CF0000000004D
:10165000000000000078000000007FF000000000A3
:1016600000000000010FC0000001FFE000000000CA
:10167000000000000101FF80003FE3E000000000E7
:1016800000000000018007FFFFFC0FC00000000009
:101690000000000001C0000000003F8000000000CA
:1016A0000000000000E000000001FF00000000005A
:1016B0000000000000380000002FFC0000000000C7
:1016C00000000000001E000000FFF8000000000005
:1016D00000000000000380000FFE78000000000002
:1016E00000000000000040003E007000000000000C
:1016F000000000000000000000007000000000007A
:1017000000000000000000000000F00000000000E9
:1017100000000000000000000001E00000000000E8
:1017200000000000000600000007C00000000000EC
:101730000000000000030000001F00000000000087
:10174000000000000001C00000FC000000000000DC
:1017500000000000000078000FEC00000000000016
:101760000000000000000400100E00000000000057
:101770000000000000000000001E0000000000004B
:101780000000000000000000007C000000000000DD
:10179000000000000000000000F000000000000059
:1017A000000000000000000007E000000000000052
:1017B00000000000000000003F600000000000008A
:1017C00000000000000000000060000000000000B9
:1017D000000000000000080000E000000000000021
:1017E000000400000000070003C00000000000002B
:1017F00001FE0000000003800F80000000000000D8
:1018000001FC0000000000C07F000000000000009C
:1018100000F8000000000000C30000080003000FF3
:10182000807C0000000000000701FDFFEFE7833F20
:10183000867C3F80000000000E07FFFFF7EF8FFF60
:101840001FFC7FC0000000003C1FFFFDFBFFDFFF0F
:101850003FFCFFE000000000761FFE7BFBFFDFFF88
:101860007FFDFFE000000000061E067BFBFFFFFF80
:101870007FFFE0E0000000001C1C067BF3F7B81EB1
:10188000707B80E000000001F8181E7C03E7BEFEBC
:101890007FFB81C000000000F01FFE7E01E7BFFF5C
:1018A000FFFFFFC000000003F80FFCFF87E7BFFF4A
:1018B000FFFFFFC000000003F007F9FF87E79FFF6D
:1018C000BF7EFF8000000001F003F1E00027FF1061
:1018D00000403F0000000000C00000000000E000E9
:1018E00000000000000000000000000000000000F8
:1018F00000000000000000000000000000000000E8
:1019000000000000000000000000000000000000D7
:1019100000000000000000000000000000000000C7
:1019200000000000000000000000000000000000B7
:1019300000000000000000000000000000000000A7
:101940000000000000000000000000000000000097
:101950000000000000000000000000000000000087
:10196000000000001FFFFFFFFFFFFF6000000000FE
:1019700001FF400000000000FF8000000000007F29
:1019800083CF00000C303F87FF80000C301F86792A
:1019900080000C000F8C30C7838C30E78C30CFC7B1
:1019A000CC31F38C30DCECEC33B98C30D86C6C334C
:1019B000198C30D06C0C33198C30D86C0C33198CDA
:1019C00030DC6C0E3B198C30CF7C079F198C30C7F4
:1019D0007C038F194000000000000260000000003E
:1019E00000061FFFFFFFFFFFF82020506C616E6EA6
:1019F000657242756666657242797465733A200055
:101A00002046726565204D656D6F72793A200043FE
:101A10006F6D70696C65643A2041707220323620B7
:101A2000323031390A00207C20417574686F723A77
:101A300020284A757374696E20476C6561736F6EF8
:101A40002C20527573732046696C6C696E67202870
:101A5000424C2D546F756368205633292C20322E4A
:101A6000302E3134290A00323031382D30312D32C8
:101A70003000204C61737420557064617465643A61
:101A800020006275676669782D322E302E780A0044
:101A90004D61726C696E0020536F66747761726578
:101AA0002052657365740A00205761746368646F1F
:101AB000672052657365740A002042726F776E204A
:101AC0006F75742052657365740A002045787465DB
:101AD000726E616C2052657365740A00506F776591
:101AE0007255700A0073746172740A006175746FC4
:101AF00025692E67006572726F722077726974694A
:101B00006E6720746F2066696C650A00446F6E65AD
:101B100020736176696E672066696C652E0A004DD8
:101B2000323900456E6473746F707320256320250D
:101B30006320256320256300205A3A0020593A008B
:101B400020583A00656E6473746F7073206869740E
:101B50003A200020746F6F206C6F6E672065787478
:101B6000727573696F6E2070726576656E746564E8
:101B70000A0020636F6C6420657874727573696FF6
:101B80006E2070726576656E7465640A0053746FBA
:101B90007720424C546F756368004D3238302050C6
:101BA0003020533930004465706C6F7920424C54BA
:101BB0006F756368004D323830205030205331301B
:101BC00000424C546F7563682053656C662D5465F4
:101BD0007374004D32383020503020533132300091
:101BE000526573657420424C546F756368004D32C2
:101BF00038302050302053313630004D61696E004E
:101C00004732380A424544204C4556454C20444F03
:101C10004E45004731205A31302046353030300AA9
:101C2000473120583230205935300A4731205A3058
:101C30000A424544204C4556454C20444F4E4500F1
:101C40004731205A31302046353030300A47312074
:101C500058323830205935300A4731205A300A423C
:101C60004544204C4556454C20444F4E4500473195
:101C7000205A31302046353030300A473120583232
:101C8000383020593236300A4731205A300A42451E
:101C900044204C4556454C20444F4E45004731208A
:101CA0005A31302046353030300A473120583230F2
:101CB00020593236300A4731205A300A42454420F2
:101CC0004C4556454C20444F4E45005265617220AC
:101CD00052696768740046726F6E74205269676853
:101CE000740046726F6E74204C65667400526561B4
:101CF00072204C65667400486F6D65004D61696EB9
:101D0000004D313235004D3234005072696E74200E
:101D100061626F72746564004368616E6765206616
:101D2000696C616D656E74004368616E67652066FD
:101D3000696C616D656E74004D3630302042300044
:101D4000436F6E66696775726174696F6E00546582
:101D50006D7065726174757265004D6F74696F6E38
:101D60000054756E65004E6F2053442063617264A9
:101D7000005072696E742066726F6D205344005378
:101D8000746F70207072696E7400526573756D6542
:101D9000207072696E740041626F757420507269B0
:101DA0006E746572005061757365207072696E742F
:101DB000004C6576656C20436F726E6572730049E6
:101DC0006E666F2073637265656E0042616279733F
:101DD000746570205A004261627973746570205A8C
:101DE00000466C6F7700466C6F7700466C6F77002B
:101DF00046616E2073706565640046616E20737085
:101E00006565640046616E207370656564004265B7
:101E1000640042656400426564004E6F7A7A6C65C6
:101E2000004E6F7A7A6C65004E6F7A7A6C65004668
:101E3000616465204865696768740046616465206F
:101E4000486569676874004661646520486569672C
:101E50006874005370656564005370656564005371
:101E600070656564004D61696E0020204E6F7A7A5E
:101E70006C653A2000200066696C616D656E7420A7
:101E80006C6F6164005761697420666F7200202076
:101E90004E6F7A7A6C653A2000200066696C616D3D
:101EA000656E74207075726765005761697420668D
:101EB0006F7200746F20726573756D65005761698C
:101EC0007420666F72207072696E74004361726470
:101ED0002072656D6F766564004361726420696E7F
:101EE0007365727465640053544F505045442E20FE
:101EF000005072696E7465722073746F70706564DF
:101F00002064756520746F206572726F72732E2065
:101F100046697820746865206572726F7220616E00
:101F20006420757365204D39393920746F207265CE
:101F300073746172742E202854656D7065726174BB
:101F40007572652069732072657365742E20536500
:101F5000742069742061667465722072657374619F
:101F60007274696E67290A0053544F502063616C84
:101F70006C65642062656361757365206F662042DD
:101F80004C546F756368206572726F72202D2072D9
:101F90006573746172742077697468204D393939BA
:101FA0000A0024F4D43050C38E20C2A24017828B82
:101FB0007011127A910D816CD90AA861E108C75895
:101FC0006607615143061E4B5D05C145A7041A41D2
:101FD0001104093D9803713931034036DB02653342
:101FE0009102D4305402802E1D02632CEE01752A1A
:101FF000C501B028A001102781018F2564012B2481
:102000004B01E0223401AC211F018D200D01801F06
:10201000FC00841EED00971DDF00B81CD200E61BFB
:10202000C600201BBC00641AB200B219A8000A192D
:10203000A0006A189900D117910040178B00B516BF
:10204000840031167E00B31579003A157300C71469
:102050006F0058146A00EE1366008813630025139E
:102060005E00C7125B006C12570015125400C111BC
:10207000510070114F0021114B00D61049008D10F6
:1020800047004610440002104200C00F4000800F7D
:102090003E00420F3C00060F3B00CB0E3800930E73
:1020A00037005C0E3500270E3400F30D3200C10DF1
:1020B0003100900D3000600D2E00320D2D00050D09
:1020C0002C00D90C2B00AE0C2900850C29005C0CCF
:1020D0002700350C27000E0C2600E80B2400C40B4B
:1020E0002400A00B23007D0B23005A0B2100390B89
:1020F0002100180B2000F80A1F00D90A1E00BB0A95
:102100001E009D0A1D00800A1D00630A1C00470A6C
:102110001B002C0A1B00110A1A00F7091A00DD091E
:102120001900C4091900AB091900920917007B09AD
:102130001800630917004C0916003609160020091B
:1021400016000A091500F5081500E0081400CC086F
:102150001400B8081400A4081400900813007D08A7
:1021600012006B08130058081200460812003408C9
:102170001100230811001208110001081100F007D6
:102180001000E0071000D0071000C0071000B007D3
:102190000F00A107100091070E0083070F007407BE
:1021A0000F0065070E0057070E0049070E003B079A
:1021B0000D002E070E0020070D0013070D00060767
:1021C0000D00F9060C00ED060D00E0060C00D4062B
:1021D0000C00C8060C00BC060C00B0060C00A406DF
:1021E0000B0099060C008D060B0082060B0077068B
:1021F0000B006C060B0061060A0057060B004C062C
:102200000A0042060A0038060A002E060A002406C2
:102210000A001A060A001006090007060A00FD0552
:102220000900F4050900EB050900E2050900D905DC
:102230000900D0050900C7050900BE050900B5055C
:102240000800AD050800A50509009C0508009405D7
:1022500008008C050800840508007C05080074054A
:1022600008006C050700650508005D0507005605B8
:1022700008004E050700470507004005080038051F
:102280000700310507002A050700230507001C0584
:102290000600160507000F050700080506000205E1
:1022A0000700FB040600F5040700EE040600E8043E
:1022B0000600E2040700DB040600D5040600CF0494
:1022C0000600C9040600C3040600BD040600B704E6
:1022D0000600B1040500AC040600A6040600A00434
:1022E00005009B04060095040500900406008A047E
:1022F000050085040500800406007A0405007504C5
:102300000500700405006B04050066040500610407
:1023100005005C04050057040500520405004D0447
:10232000050048040500430405003E0404003A0487
:10233000050035040500300404002C0405002704C2
:102340000400230405001E0404001A0404001604FB
:102350000500110404000D04040009040500040430
:10236000040000040400FC030400F8030400F40368
:102370000400F0030400EC030400E8030400E40399
:102380000400E0030400DC030400D8030400D403C9
:102390000400D0030400CC030400C8030300C503F9
:1023A000030024F404D9201BC40C5C0E9804C40957
:1023B0005F0265077101F405F900FB04B3004804EE
:1023C0008700C10369005803550003034500BE029E
:1023D0003A008402310053022A0029022500040237
:1023E0002000E4011C00C8011900AF01170098018A
:1023F00014008401130071011000610110005101EB
:102400000E0043010D0036010B002B010B002001D3
:102410000B00150109000C01090003010800FB0075
:102420000800F3000800EB000700E4000600DE00EF
:102430000600D8000600D2000600CC000500C70048
:102440000500C2000500BD000400B9000400B5008D
:102450000400B1000400AD000400A9000400A500C0
:102460000300A20003009F0004009B0003009800EB
:1024700003009500020093000300900003008D000C
:1024800002008B0003008800020086000200840026
:102490000300810002007F0002007D0002007B003B
:1024A000020079000200770001007600020074004B
:1024B000020072000100710002006F0002006D0056
:1024C00001006C0002006A00010069000200670060
:1024D0000100660001006500010064000200620066
:1024E000010061000100600001005F0002005D006A
:1024F00001005C0001005B0001005A00010059006E
:10250000010058000100570001005600010055006D
:10251000010054000100530000005300010052006C
:10252000010051000100500001004F0001004E0069
:1025300000004E0001004D0001004C0001004B0066
:1025400000004B0001004A00010049000100480062
:10255000000048000100470001004600000046005E
:102560000100450000004500010044000100430057
:102570000000430001004200000042000100410051
:10258000000041000100400001003F0000003F004A
:1025900001003E0000003E0001003D0000003D0043
:1025A00001003C0000003C0000003C0001003B003A
:1025B00000003B0001003A0000003A000100390031
:1025C0000000390001003800000038000000380029
:1025D000010037000000370001003600000036001F
:1025E0000000360001003500000035000000350015
:1025F000010034000000340000003400010033000A
:1026000000003300000033000100320000003200FF
:1026100000003200010031000000310000003100F4
:1026200001003000000030000000300001002F00E9
:1026300000002F0000002F0000002F0001002E00DE
:1026400000002E0000002E0001002D0000002D00D3
:1026500000002D0000002D0001002C0000002C00C7
:1026600000002C0000002C0001002B0000002B00BB
:1026700000002B0000002B0001002A0000002A00AF
:1026800000002A0000002A000100290000002900A3
:102690000000290000002900000029000100280096
:1026A000000028000000280000002800000028008A
:1026B000010027000000270000002700000027007D
:1026C0000000270001002600000026000000260070
:1026D0000000260000002600010025000000250063
:1026E0000000250000002500000025000000250056
:1026F0000100240000002400000024000000240049
:10270000000024000100230000002300000023003B
:10271000000023000000230000002300000023002D
:102720000100220000002200000022000000220020
:102730000000220000002200010021000000210012
:102740000000210000002100000021000000210005
:1027500000002100010020000000200000002000F7
:1027600000002000000020000000200000002000E9
:102770000000200001001F0000001F0000001F00DB
:1027800000001F0000001F0000001F0000001F00CD
:1027900001001E0000001E0000001E0000001E00C0
:1027A000000069300000552500009D190000B80F99
:1027B0000000E0080000BD040000740200003F01BA
:1027C000000025753A2530327500253032753A25DE
:1027D0003032750025756420253032753A25303247
:1027E000750020202020202000202020200009200B
:1027F000000000000000000000000000003FFFF0AB
:102800000000000000000000000000003800700020
:10281000000000000000000000000030FC3000005C
:102820000000000000000000000020FC100000007C
:1028300000000000000000000020781000000000F0
:102840000000000000000000203010000000000028
:10285000000000000000002C00D03FC0000000007D
:102860000000002082002E31D07FE0000000000038
:1028700000001041002F7BD07FE00000000000002E
:10288000001041002F7BD07FE0000000000000001E
:102890002082002E31D03FC0000000000000004127
:1028A00004002C00D03FC00000000000000082089F
:1028B000002030107FE000000000000000820800CF
:1028C0002078107FE000000000000000410400209C
:1028D000FC107FE00000000000000020820030FCBF
:1028E000301F800000000000000000000038007071
:1028F0000F0000000000000000FFFFC03FFFF006D7
:102900000000000000000000FFFFC0000000000009
:10291000000000000000000000003FFFF000000089
:1029200000000000000000000038007000000000FF
:1029300000000000000000003186300000000000B0
:1029400000000000000000238710000000000000CD
:102950000000000000002787900000000000000039
:1029600000000000002F87D00000000000000000E1
:10297000000000002F03D03FC00000000000000056
:102980002082002030107FE00000000000000010D6
:1029900041002078107FE00000000000000010419E
:1029A000002078107FE0000000000000002082007E
:1029B0002030103FC0000000000000004104002F44
:1029C00003D03FC0000000000000008208002F87F5
:1029D000D07FE00000000000000082080027879000
:1029E0007FE0000000000000004104002387107F0A
:1029F000E0000000000000002082003186301F80CF
:102A0000000000000000000000003800700F00000F
:102A1000000000000000FFFFC03FFFF006000000C4
:102A20000000000000FFFFC00000005465766F202A
:102A30004E65726575732047454E2D4C2052656179
:102A400064792E005072696E74696E672E2E2E00A6
:102A50005072696E742070617573656400202F0078
:102A60002042403A0020403A007C3C3E5E2B3D3FF5
:102A70002F5B5D3B2C2A225C004573746570732FBD
:102A80006D6D004573746570732F6D6D005A7374AE
:102A90006570732F6D6D005A73746570732F6D6D53
:102AA000005973746570732F6D6D00597374657080
:102AB000732F6D6D005873746570732F6D6D0058B2
:102AC00073746570732F6D6D00416476616E63651C
:102AD000642053657474696E6773004D3432380036
:102AE000496E697469616C697A6520454550524F39
:102AF0004D00526573657420424C546F75636800D5
:102B00004D323830205030205331363000424C5452
:102B10006F7563682053656C662D54657374004D42
:102B200032383020503020533132300046696C61E9
:102B30006D656E740054656D706572617475726553
:102B40000053746570732F6D6D004A65726B0041A0
:102B50006363656C65726174696F6E0056656C6F56
:102B6000636974790053657420686F6D65206F66C2
:102B700066736574730050726F6265205A204F66E9
:102B8000667365740050726F6265205A204F6666E6
:102B900073657400436F6E66696775726174696FFF
:102BA0006E004C6F6164206D6D004C6F6164206D30
:102BB0006D004C6F6164206D6D00556E6C6F6164CB
:102BC000206D6D00556E6C6F6164206D6D00556EEB
:102BD0006C6F6164206D6D0046696C2E20446961E4
:102BE0002E0046696C2E204469612E004F666600F7
:102BF0004F6E20004520696E206D6D330041647674
:102C0000616E6365204B00416476616E6365204BA5
:102C100000416476616E6365642053657474696E07
:102C200067730043616E6E6F7420656E7465722009
:102C30007375626469723A2000022E2E004D61693C
:102C40006E000000A0430000A0430000C34300004A
:102C50000000000000000000000000000000000074
:102C60000000000000000000A0420000A0420000A0
:102C7000C040000000005761726E696E673A2048DC
:102C80006F6D696E672042756D7020446976697357
:102C90006F72203C20310A000202040000A04000B4
:102CA00000A040000000400000A0430000A043003E
:102CB00000C343FFFFFF5072656865617420504C8C
:102CC0004120456E64005072656865617420504C07
:102CD0004120426564005072656865617420504C03
:102CE000410054656D706572617475726500507253
:102CF00065686561742041425320456E64005072DE
:102D000065686561742041425320426564005072D9
:102D10006568656174204142530054656D70657249
:102D200061747572650044697361626C65207374C7
:102D3000657070657273004D3834004661646520BB
:102D4000486569676874004661646520486569671D
:102D50006874004661646520486569676874004F5F
:102D60006666004F6E2000426564204C6576656C97
:102D7000696E67004C6576656C2062656400473259
:102D8000380A47323900486F6D65205A004732389B
:102D9000205A00486F6D652059004732382059008D
:102DA000486F6D65205800473238205800417574CF
:102DB0006F20686F6D6500473238004D6F76652073
:102DC00061786973004D61696E004D6F76652058BA
:102DD000004D6F76652059004D6F7665205A00458D
:102DE00078747275646572004D6F766520302E318F
:102DF0006D6D004D6F766520316D6D004D6F7665A0
:102E00002031306D6D004D6F7665206178697300FB
:102E10004578747275646572004D6F7665205A004E
:102E20004D6F76652059004D6F76652058006F70A4
:102E3000656E206661696C65642C2046696C653A34
:102E4000200043616E6E6F74206F70656E20737525
:102E50006264697220006563686F3A0007FFFFFFD4
:102E6000FFFFFF000101010101016265640A002CFE
:102E70002073797374656D2073746F70706564214D
:102E8000204865617465725F49443A200042656478
:102E90002068656174696E67206661696C656400AD
:102EA00048656174696E67206661696C6564004598
:102EB000312048656174696E67206661696C65647C
:102EC0000048656174696E67206661696C656400BD
:102ED0004B494C4C45442E2000202D20496E7661F4
:102EE0006C6964206578747275646572206E756DA6
:102EF00062657220210A0070012C0190012701B047
:102F0000012201C0011D01F001180110021301305E
:102F1000020E016002090190020401C002FF0000DC
:102F200003FA004003F5008003F000D003EB00201B
:102F300004E6007004E100E004DC004005D700C0B6
:102F400005D2004006CD00D006C8008007C300307F
:102F500008BE00F008B900C009B400B00AAF00B064
:102F60000BAA00D00CA500000EA000500F9B00C0C3
:102F70001096005012910000148C00C0158700B00C
:102F8000178200B0197D00D01B7800001E7300402E
:102F9000206E0090226900F024640040275F0090BA
:102FA000295A00E02B5500102E500020304B001005
:102FB000324600E033410090353C00103737007056
:102FC000383200A0392D00B03A2800A03B23006021
:102FD0003C1E00103D1900903D1400103E0F007083
:102FE0003E0A00C03E0500003F0000403FFBFF805E
:102FF0003FF6FFC03FF1FF453120544845524D4157
:103000004C2052554E4157415900424544205448A6
:1030100045524D414C2052554E415741590054683C
:1030200065726D616C2052756E6177617900453112
:10303000204572723A204D415854454D500045721A
:10304000723A204D415854454D5020424544004D60
:10305000415854454D5020747269676765726564C4
:10306000004531204572723A204D494E54454D502D
:10307000004572723A204D494E54454D502042450C
:1030800044004D494E54454D502074726967676540
:10309000726564004D383420582059205A2045006C
:1030A0004361703A0047322F4733206261642070D9
:1030B0006172616D65746572730A00656E71756524
:1030C0007565696E672022006F6B00526573656ECF
:1030D000643A20004B494C4C45442E200053544F39
:1030E000505045442E20005072696E7465722073F2
:1030F000746F707065642064756520746F206572EC
:10310000726F72732E20466978207468652065722C
:10311000726F7220616E6420757365204D39393984
:1031200020746F20726573746172742E2028546548
:103130006D70657261747572652069732072657354
:1031400065742E20536574206974206166746572FD
:103150002072657374617274696E67290A004E6F1C
:1031600020436865636B73756D2077697468206CA4
:10317000696E65206E756D6265722C204C6173748A
:10318000204C696E653A20004E6F20436865636B82
:1031900073756D2077697468206C696E65206E7533
:1031A0006D6265722C204C617374204C696E653AB7
:1031B0002000636865636B73756D206D69736D6165
:1031C0007463682C204C617374204C696E653A20DE
:1031D000004C696E65204E756D62657220697320C2
:1031E0006E6F74204C617374204C696E65204E754F
:1031F0006D6265722B312C204C617374204C696EAA
:10320000653A20004D313130004D333100534420B8
:1032100072656164206572726F720A00446F6E6538
:10322000207072696E74696E672066696C650A0049
:103230002569730025696D2025697300256968205B
:1032400025696D202569730025696420256968203A
:1032500025696D2025697300256979202569642019
:103260002569682025696D202569730046696C61B0
:103270006D656E7420757365643A200053746174D3
:10328000733A20002C204C6F6E67657374206A6F50
:10329000623A2000546F74616C2074696D653A2045
:1032A0000053746174733A20002C204661696C6588
:1032B000643A20002C2046696E69736865643A2080
:1032C000005072696E74733A200053746174733ADB
:1032D000200020573A004520436F6F6C696E672EBF
:1032E0002E2E00452048656174696E672E2E2E00D3
:1032F00020573A0042656420636F6F6C696E672ED9
:103300002E2E004265642068656174696E672E2EFA
:103310002E0023646566696E652044454641554C20
:10332000545F4B64200023646566696E65204445E4
:103330004641554C545F4B69200023646566696EB5
:10334000652044454641554C545F4B702000504920
:1033500044204175746F74756E652066696E69737B
:10336000686564212050757420746865206C6173F1
:1033700074204B702C204B6920616E64204B6420BC
:10338000636F6E7374616E74732066726F6D20620A
:10339000656C6F7720696E746F20436F6E66696726
:1033A00075726174696F6E2E680A0050494420413D
:1033B00075746F74756E65206661696C6564212033
:1033C00074696D656F75740A004531205448455223
:1033D0004D414C2052554E41574159005468657239
:1033E0006D616C2052756E617761790045312048BE
:1033F000656174696E67206661696C656400486523
:103400006174696E67206661696C65640050494447
:10341000204175746F74756E65206661696C6564B2
:10342000212054656D706572617475726520746FCA
:103430006F20686967680A00204B643A2000204BBF
:10344000693A2000204B703A20000A20436C6173D7
:1034500073696320504944200A002054753A2000C3
:10346000204B753A2000206D61783A2000206D696C
:103470006E3A200020643A200020626961733A208D
:1034800000504944204175746F74756E65207374E3
:103490006172740A00504944204175746F74756EEE
:1034A00065206661696C65642120426164206578ED
:1034B000747275646572206E756D6265720A00566D
:1034C00054726176206D696E005654726176206D7B
:1034D000696E005654726176206D696E00566D6992
:1034E0006E00566D696E00566D696E00566D61789E
:1034F000204500566D6178204500566D6178204565
:1035000000566D6178205A00566D6178205A005639
:103510006D6178205A00566D6178205900566D61B2
:1035200078205900566D6178205900566D617820D9
:103530005800566D6178205800566D61782058000B
:10354000416476616E6365642053657474696E6767
:103550007300416D6178204500416D617820450020
:10356000416D6178205A00416D6178205A00416DAB
:103570006178205900416D6178205900416D617872
:10358000205800416D6178205800412D7472617699
:10359000656C00412D74726176656C00412D726519
:1035A000747261637400412D72657472616374009A
:1035B000416363656C00416363656C0041647661DF
:1035C0006E6365642053657474696E677300566535
:1035D0002D6A65726B0056652D6A65726B005665C3
:1035E0002D6A65726B00567A2D6A65726B00567A89
:1035F0002D6A65726B0056792D6A65726B0056797B
:103600002D6A65726B0056792D6A65726B0056786B
:103610002D6A65726B0056782D6A65726B0056785C
:103620002D6A65726B00416476616E636564205338
:10363000657474696E6773004D3234004D32332007
:1036400025730050726F62696E67206661696C65F0
:10365000640A0050726F62696E67206661696C650A
:103660006400205A3A200020593A20004265642024
:10367000583A2000486F6D65202573257325732007
:103680006669727374002066697273740A005A0066
:1036900059005800486F6D652000496E736572745B
:1036A0002066696C616D656E7420616E6420707255
:1036B00065737320627574746F6E20286F72204D6D
:1036C000313038290A002F2F616374696F6E3A72A6
:1036D0006573756D650A00486F74656E6420746F5C
:1036E0006F20636F6C640A00556E6B6E6F776E208F
:1036F000636F6D6D616E643A2022006F70656E00BD
:10370000545249474745524544003A20007A5F6D7C
:10371000696E00795F6D696E00785F6D696E005249
:1037200065706F7274696E6720656E6473746F7014
:10373000207374617475730A00205A3A0020593A54
:103740000020436F756E7420583A0020453A0020DF
:103750005A3A0020593A00583A0020746F6F206C92
:103760006F6E6720657874727573696F6E20707202
:103770006576656E7465640A0020636F6C6420650D
:103780007874727573696F6E2070726576656E7489
:1037900065640A00486F6D696E67206661696C65D3
:1037A0006400454550524F4D206461746173697ADD
:1037B00065206572726F722E0A00290A00206279F4
:1037C0007465733B2063726320002073746F7265AD
:1037D000642073657474696E6773207265747269AE
:1037E00065766564202800202863616C63756C61D0
:1037F00074656429210A0020213D2000454550526E
:103800004F4D20435243206D69736D61746368208E
:103810002D202873746F7265642920002053697A03
:10382000653A2000496E6465783A2000204D617247
:103830006C696E3D563538290A0028454550524F6F
:103840004D3D00454550524F4D2076657273696F6E
:103850006E206D69736D6174636820004572723A01
:10386000207574663820666F6E74206E6F742069E0
:103870006E697469616C697A65642E004572723A8A
:10388000207574663820666F6E74206E6F742069C0
:103890006E697469616C697A65642E004572723A6A
:1038A000207574663820666F6E74206E6F742069A0
:1038B0006E697469616C697A65642E00486172642E
:1038C000636F6465642044656661756C742053653C
:1038D0007474696E6773204C6F616465640A0020BC
:1038E0000300002003000020030000B004000000DB
:1038F00000C8420000C8420000804000008C4233F3
:10390000339F42A470A24271BDCF437B94C9433A16
:103910000A0020204D36303320002055004C004650
:10392000696C616D656E74206C6F61642F756E6C6F
:103930006F6164206C656E677468733A0A002020BA
:103940004D393030204B004C696E65617220416406
:1039500076616E63653A0A0020204D383531205A71
:10396000005A2D50726F6265204F66667365742031
:10397000286D6D293A0020440020490020204D3355
:1039800030312050005049442073657474696E676B
:10399000733A0A0020460020420020480020204DB3
:1039A0003134352053004D6174657269616C206853
:1039B000656174757020706172616D657465727394
:1039C0003A0A00205A00204A002020473239205766
:1039D000204900205A0020204D343230205300412D
:1039E00075746F20426564204C6576656C696E67FE
:1039F0003A0A00205A0020590020204D323036204B
:103A00005800486F6D65206F66667365743A0A00EA
:103A1000204500205A002059002058002054002042
:103A2000530020204D32303520420020453C6D614E
:103A3000785F655F6A65726B3E0020583C6D617807
:103A40005F785F6A65726B3E20593C6D61785F7983
:103A50005F6A65726B3E205A3C6D61785F7A5F6A7F
:103A600065726B3E00416476616E6365643A204224
:103A70003C6D696E5F7365676D656E745F74696DCB
:103A8000655F75733E20533C6D696E5F6665656466
:103A9000726174653E20543C6D696E5F747261762C
:103AA000656C5F66656564726174653E00205400F4
:103AB00020520020204D3230342050004163636595
:103AC0006C65726174696F6E2028756E6974732FEE
:103AD0007332293A20503C7072696E745F6163637F
:103AE000656C3E20523C726574726163745F616301
:103AF00063656C3E20543C74726176656C5F6163F3
:103B000063656C3E0A00204500205A0020590020C1
:103B1000204D3230312058004D6178696D756D202F
:103B2000416363656C65726174696F6E2028756EA0
:103B30006974732F7332293A0A00204500205A0015
:103B400020590020204D3230332058004D617869D3
:103B50006D756D2066656564726174657320287586
:103B60006E6974732F73293A0A00204500205A00A9
:103B700020590020204D393220580053746570734D
:103B80002070657220756E69743A0A0020204D32EB
:103B900030302044300A0020204D323030204400A4
:103BA0002044697361626C65640A0046696C616DEA
:103BB000656E742073657474696E67733A002020B3
:103BC0004D3134392043203B20556E697473206990
:103BD0006E2043656C736975730A0020286D6D292A
:103BE000002020473231202020203B20556E697470
:103BF0007320696E206D6D000000210024002700F5
:103C00002A002D00300033000101000004010701EB
:103C10000A0100002200250028002B002E003100A0
:103C2000340002010000050108010B010000200022
:103C30002300260029002C002F0032000001000084
:103C4000030106010901050505050705080808081F
:103C5000020202020A0A0808040404040101010124
:103C6000010101010303030303030303040707071F
:103C70000C0C0C0C0C0C0C0C0202020206060606C4
:103C8000060606060B0B0B0B0B0B0B0B0102102091
:103C90002008081020401020408002010201080482
:103CA0000201010204081020408080402010080416
:103CB000020180040201804020100804020108046F
:103CC00002010102040810204080010204081020B3
:103CD000408000000A0B02090C0D0E0807030401C6
:103CE00000000000000000000000000000000000D4
:103CF00000000000000000000000000000001211A1
:103D000010000000000000000000000000000000A3
:103D10000000000000000000534420636172642032
:103D20006F6B0A006F70656E526F6F742066616909
:103D30006C65640A00766F6C756D652E696E6974CA
:103D4000206661696C65640A00534420696E697479
:103D5000206661696C0A0057726974696E67207425
:103D60006F2066696C653A20006F70656E20666131
:103D7000696C65642C2046696C653A20006F70653B
:103D80006E206661696C65642C2046696C653A201A
:103D90000046696C652073656C65637465640A0030
:103DA0002053697A653A200046696C65206F70651A
:103DB0006E65643A2000667265736800646F696EB0
:103DC00067002066696C653A20004E6F77200045D9
:103DD0004E4420535542524F5554494E450A0022F5
:103DE00020706F73002220706172656E743A220039
:103DF000535542524F5554494E452043414C4C2057
:103E00007461726765743A22004B494C4C45442EEC
:103E10002000747279696E6720746F2063616C6C26
:103E2000207375622D67636F64652066696C6573C6
:103E3000207769746820746F6F206D616E79206CD3
:103E40006576656C732E204D4158206C6576656CE7
:103E50002069733A004572726F723A0024010E01B4
:103E600011241FBECFEFD1E2DEBFCDBF00E00CBFFB
:103E700013E0A0E0B2E0EEE0FAE502E00BBF02C022
:103E800007900D92AA36B107D9F725E1AAE6B3E06B
:103E900001C01D92AB3EB207E1F71FE1CFE2DFE1C7
:103EA00000E006C021970109802FFE010F94642CC9
:103EB000CE32D10780E00807A9F70F9456170D946A
:103EC000F62C0C9400002F923F924F925F926F92CB
:103ED0007F928F929F92AF92BF92CF92DF92EF929A
:103EE000FF920F931F93CF93DF93CDB7DEB7A597C4
:103EF0000FB6F894DEBF0FBECDBF0091CB0520E614
:103F0000029F80011124055B1B4F8091BE0B80FF37
:103F100007C086E59EE20E946837C8010E94823C85
:103F200010929903109298038FE380939A03109252
:103F300097031092960310928403109285031092B7
:103F4000860310928703C8018C01DC012C91019635
:103F50002032D1F32E34D9F411968C9190ED980F34
:103F60009A3020F08D3211F08B3289F4F8013296BC
:103F70009F012F5F3F4F808180538A3010F4F901F9
:103F8000F7CF8F013196D8018C918032D1F3109305
:103F9000101300930F137801BFEFEB1AFB0AF8011F
:103FA00070806AE270E0C7010F94B32C009731F083
:103FB000FC01319780818032E1F31182FDE47F16AC
:103FC00031F024E5721619F037E47312F0C0F701EE
:103FD00080814FEFE41AF40A8032C9F380538A30AB
:103FE00008F0E5C070929A0380E090E06AE03196B4
:103FF000DF0111972C91022E000C330B2053310955
:10400000689FA001699F500D1124C901840F951F5D
:10401000208120532A3058F390939703809396037E
:104020009F01D9012F5F3F4F4C914032D1F3EDE416
:104030007E121AC08E31910591F03CF487319105C2
:1040400071F08C31910581F40AC08537910564F0D7
:104050008737910524F0803AF3E09F0729F4B09365
:104060009903A0939803A3C0C12CD12C760140E002
:1040700050E0812C912C54018394FD0131966C9178
:1040800061110DC05093990340939803C09284032B
:10409000D0928503E0928603F092870388C0613254
:1040A000E9F42DE472121AC080329105B9F4C0927D
:1040B0008403D0928503E0928603F0928703F09305
:1040C0009903E093980363E270E0CF010F94B32C5F
:1040D000009709F46CC0DC011C9269C061546A311C
:1040E00008F042C09F01F90170812F5F3F4F70328D
:1040F000D1F320ED270F2A30E8F07E3211F4218130
:104100000CC07D3211F07B3259F4218130ED320F39
:104110003A3080F02E3221F4228120532A3050F0A0
:104120004115510511F00C944533AF01415051092F
:104130000C9445339F01A62FB0E01401250104C063
:10414000220C331C441C551C6A95D2F7C228D32874
:10415000E428F5282115310511F0201B01C020E0CD
:10416000A659BC4F2C9304C04115510509F4AD016B
:10417000208121542A3110F4DF017FCF9F01F90102
:10418000D9016D916623C1F370ED760F7A3010F48A
:104190009D01F5CF73ED760F7230D0F36B32C1F322
:1041A000F9012F5F3F4F60816032D1F3E5CF41E0ED
:1041B0004093E61280919A038D3409F4F0C284355D
:1041C00011F40C941233873411F00C943E33209187
:1041D0009603309197032C31310509F4B3C08CF468
:1041E0002430310534F42230310584F537FF27C0FF
:1041F000D2C224303105C9F12B31310509F474C024
:10420000CAC22A32310509F410C24CF42D313105ED
:1042100009F49DC02E31310509F4B4C0BCC22B3560
:10422000310509F480C12C35310509F480C12A35E6
:10423000310509F0B0C2109295030C94403380917F
:10424000580281110C9449330C94403380915802E8
:10425000882311F40C94403381E02230310509F0B9
:1042600080E00E94FBD40C94403380E50E949A6168
:10427000882329F00E94154E6B017C0103C0C12CDC
:10428000D12C760183E50E949A61882361F00E9417
:104290001A6120E030E04AE754E40F9482250F943D
:1042A000B22A6B017C010E94FDB58091121381112D
:1042B00005C060E081EF92E00E9495600F94A21229
:1042C000C60ED71EE81EF91E0F94A212DC01CB0108
:1042D0008C199D09AE09BF09B7FD02C00C9440338B
:1042E00080E00E942F38F0CF0E94ECED81110C94F9
:1042F000403380E090E0A0E2B1E489839A83AB830D
:10430000BC8380E090E0ABE9B3E48D839E83AF8310
:10431000B88780E090E0A0EAB1E489879A87AB870C
:10432000BC8780E50E949A61882321F00E94F96091
:10433000862F01C080E0BE016F5F7F4F0E94795BD6
:104340000C94403380E00E94354E0C9440330E9420
:10435000ECED81110C9440338091E005882311F439
:104360000C944E338FE40E949A61882319F00E94C6
:10437000254E03C08FE40E94516181110C9440339B
:104380000C944E3320E030E0A9016091D00570918B
:10439000D1058091D2059091D3050F9469296B01C5
:1043A0007C0188E50E949A61882321F00E941A61AD
:1043B0006B017C01CC8EDD8EEE8EFF8E20E030E036
:1043C00040E651E46091D4057091D5058091D60501
:1043D0009091D7050F9469296B017C0189E50E94B2
:1043E0009A61882321F00E941A616B017C01C982C5
:1043F000DA82EB82FC826C8D7D8D8E8D9F8DA70184
:1044000096010E9480D4882311F40C94403380E0FC
:104410000E9484640E9467BA85E40E949A6188239E
:1044200021F00E94254E182F04C085E40E9451619E
:1044300011E021E0412FBE016F5F7F4FCE014C960E
:104440000E944BEE6B017C019B01AC010F94152C7B
:1044500081115FC08C8C9D8CAE8CBF8C20E030E0D5
:10446000A901C501B4010F941D2587FF05C027E1EF
:1044700037EB41E558EB04C027E137EB41E558E362
:10448000C501B4010F946929AB01BC0184E093E03C
:104490000E94796D89809A80AB80BC8020E030E0FA
:1044A000A901C501B4010F941D2587FF05C027E1AF
:1044B00037EB41E558EB04C027E137EB41E558E322
:1044C000C501B4010F946929AB01BC018FEF92E0E3
:1044D0000E94796D20E030E0A901C701B6010F9478
:1044E0001D2587FF05C027E137EB41E558EB04C0E8
:1044F00027E137EB41E558E3C701B6010F9469297D
:10450000AB01BC018AEF92E00E94796D8AE00E94C3
:1045100061370E94E1F5113011F40E949D990E94CB
:10452000B7F70C944033409395030C944033E9E67D
:104530002E2EE2E03E2EF4EAEF2EFCE0FF2EE0ED20
:10454000F5E0FDA3ECA3A0EDCA2EA2E1DA2E00E077
:1045500010E0D1018D911D010E949A61882309F418
:104560004BC00E941A612B013C01133049F0F60147
:1045700020813181428153810F9468292B013C01B4
:10458000ACA1BDA12D913D914D915C91C301B201B2
:104590000F9468294B015C012DEB37E346E855EB9E
:1045A0000F948F2B87FD0AC02DEB37E346E855E3C8
:1045B000C501B4010F941D251816F4F4133051F4FD
:1045C0004092DC055092DD056092DE057092DF05B9
:1045D00001E012C0A5019401F7016081718182811F
:1045E00093810F946929D7016D937D938D939C934B
:1045F0001397812F0E9486BA1F5FB4E0EB0EF11C67
:10460000ECA1FDA13496FDA3ECA3F4E0CF0ED11CE8
:10461000143009F09ECF002321F08CED95E00E942C
:104620000EB60E94B7F70C9440338091580288234D
:1046300011F40C94403389E40E949A61E82E882397
:1046400021F00E94F960F62E01C0F12C8AE40E944C
:104650009A61182F882321F00E94F960062F01C06B
:1046600000E0EE2019F023E02F1520F0112341F097
:10467000043030F08CE093E00E9468370C944033B3
:104680000E941D62EE20F1F02091641330916513B9
:104690004F2D4203B001439F700D11248091591397
:1046A00090915A13680F791F072E000C880B990BF5
:1046B0000F9423256093E7127093E8128093E91218
:1046C0009093EA121123E9F0209166133091671359
:1046D0000203B001039F700D112480915B13909130
:1046E0005C13680F791F072E000C880B990B0F9431
:1046F00023256093EB127093EC128093ED1290934C
:10470000EE1280E50E949A618823E9F00E94254E0E
:104710008823E9F01123D9F020E030E040E651E4AD
:104720006091EB127091EC128091ED129091EE126B
:104730000F9468296093EB127093EC128093ED1242
:104740009093EE1204C080E50E945161E1CF86E4AF
:104750000E949A618823D9F00E941A616B017C0142
:1047600020E030E0A9010F948F2B181684F420E08C
:1047700030E040E752E4C701B6010F94452A609348
:1047800060027093610280936202909363020E94C0
:1047900015F30C9440330E94BEEB0C94403380918F
:1047A0009603909197038637910509F4AAC70CF0F8
:1047B000CAC08C34910509F485C40CF058C0893105
:1047C000910509F4B4C21CF58431910509F442C283
:1047D0007CF48131910509F42EC22CF4029708F47F
:1047E000B2C10C940F33429709F457C60C940F339F
:1047F0008631910509F458C20CF452C287319105F3
:1048000009F458C2489709F468C20C940F338E31EA
:10481000910509F409C384F48B31910509F4A3C20D
:104820000CF493C28C31910509F4F4C24D9711F444
:104830000C9440330C940F338A32910509F4D4C39D
:104840004CF48F31910509F4ADC3809709F45EC330
:104850000C940F338934910509F427C48B349105E6
:1048600011F00C940F330E94B3B30C9440338A368A
:10487000910509F43DC58CF58335910509F409C608
:104880009CF48E34910509F425C40CF41FC48135C1
:10489000910509F4E9C58235910511F00C940F33A7
:1048A000109290030C9440338C35910509F445C661
:1048B00054F48435910509F4F0C58535910509F462
:1048C00021C60C940F338836910509F407C4893644
:1048D000910509F4D4C40C940F338F36910509F473
:1048E00037C484F48C36910509F47AC40CF41EC5DF
:1048F0008D36910509F415C48E36910509F415C459
:104900000C940F338237910509F4A0C654F4803714
:10491000910509F469C48137910509F469C40C94BF
:104920000F338337910509F497C68537910511F048
:104930000C940F3360E080919803909199030E944A
:10494000D1600C9440338D32A1E09A0711F40C949D
:10495000D72F0CF071C08B3C910509F4E4C7A4F586
:104960008C38910509F469C484F48837910509F4F9
:1049700001C70CF4FCC68937910509F401C78D37CE
:10498000910509F4E5C40C940F338E3B910509F4AD
:1049900072C454F48139910509F4F7C68B39910535
:1049A00009F47EC40C940F33883C910509F454C774
:1049B000893C910511F00C940F3389E6E82E82E0D2
:1049C000F82E05EC1CE096C78C3D910511F40C9473
:1049D000752E9CF48D3C910511F40C94232D0CF450
:1049E000BDC78E3C910511F40C949A2D833D910521
:1049F00011F40C94BD2D0C940F338831E1E09E0727
:104A000011F40C94152F5CF48D3D910511F40C9468
:104A1000822E823E910509F415C30C940F33823225
:104A200021E0920711F40C94AD2F8C32914011F4D7
:104A30000C94B82F0C940F33843F41E0940711F489
:104A40000C94BF310CF042C08139B1E09B0711F4E6
:104A50000C949F30C4F48F32F1E09F0711F40C9452
:104A60009C3014F40C945B30833631E0930711F4DE
:104A70000C94F3328039914011F00C940F330E9462
:104A8000FDB50C944033843AA1E09A0711F40C94DC
:104A9000AD307CF48239E1E09E0711F40C94A5302E
:104AA0008A39914011F00C940F330E94FC340C941D
:104AB0004033853A21E0920711F40C94B0308C3ADF
:104AC000914011F40C941A310C940F33883542E064
:104AD000940711F40C942532B4F4863FB1E09B079F
:104AE00011F40C94C53114F40C94C231873FF1E0F9
:104AF0009F0711F40C94C831883F914011F40C9435
:104B0000D4310C940F33843833E0930711F40C94B0
:104B1000AF326CF48B35A2E09A0711F40C94283272
:104B20008335934011F40C94E5310C940F33803AA3
:104B3000E3E09E0709F429C2873E934011F40C94E8
:104B4000FA320C940F33A0909803B090990380E54B
:104B50000E949A61882359F00E94154E6B017C01D6
:104B600011E0672B682B692B31F410E004C010E0D2
:104B7000C12CD12C760183E50E949A61882311F41F
:104B80000C9451330E941A6120E030E04AE754E46B
:104B90000F9482250F94B22A6B017C0111110BC076
:104BA000672B682B692B39F4A114B10421F0D501CE
:104BB0008C91811102C010E001C011E00E94FDB58E
:104BC000112329F061E0C5010E94D16005C060E0B9
:104BD0008BE293E00E94956083E08093E61281E08F
:104BE0008093E512C114D104E104F104B1F00F94F3
:104BF000A212C60ED71EE81EF91E0F94A212DC01E7
:104C0000CB018C199D09AE09BF09B7FF0EC0809179
:104C1000E51281110C94563308C08091E512882367
:104C200021F080E00E942F38F8CF0E94209B109244
:104C3000E5120C94403360E08EE393E00E949560AF
:104C40005F988A988091080181708093060112987C
:104C50000C94403386E593E00E94683710924F1021
:104C600082E39EE00E94BAA58BE1E2E3FEE0DE0172
:104C7000119601900D928A95E1F740E050E0BE0157
:104C80006F5F7F4F80E090E00E94F6C5CE010196F5
:104C90000E942D3587E493E00E9468370C944033DE
:104CA0000F94D7150C9440331092060E1092070EF5
:104CB0000C9440338091980390919903FC012081DA
:104CC000222329F0203209F410823196F8CF40E0F7
:104CD00061E00F947E140C94403380E090E0A8E4EF
:104CE000B2E489839A83AB83BC831C8E1D8E1E8E97
:104CF0001F8E18A219A21AA21BA28091F40C88235D
:104D000059F020E0AE014F5F5F4FBE01645E7F4F00
:104D1000CE0180960E9476EC8091070E882319F0D0
:104D200081E08093060E0E94B3B30C94403310923E
:104D3000060E0E94645B87E693E09093CE12809308
:104D4000CD120E94B6D10C9440338091070E882377
:104D500011F40C94403383E50E949A6181110C9404
:104D60005A330C94403383E40E945161882319F133
:104D700086E793E00E94683780919D0F882391F029
:104D8000BE016F5F7F4F8AE99FE00E9482A48E017F
:104D90000F5F1F4FF80181918F01882339F00E9426
:104DA0006137F8CF8CE693E00E9468378AE00E9472
:104DB00061370C9440338091070E882329F180914C
:104DC000060E882309F185E893E00E946837609118
:104DD0004B1070914C1080914D1090914E104AE004
:104DE0000E94883B8FE20E9461376091471070916A
:104DF00048108091491090914A104AE00E94883BE7
:104E00000E947E3C0C94403387E993E00E9468370F
:104E10000C94403340E060E08091980390919903B6
:104E20000F947E140C9440338091070E882311F464
:104E30000C9440338AE99FE00F9418028AE99FE0BE
:104E40000E945DA41092050E1092040E009198032A
:104E5000109199038091070E882311F40C9440332C
:104E60000E9447C8B801CE014C960E9497C78C019A
:104E7000009711F40C9440336C8D7D8D19821C8247
:104E800022E0AC01CE0101960E9441AA811102C02C
:104E9000F12C14C0CE0101960E9464C58823C1F391
:104EA00061E0CE0101960E9466A4009789F325EE89
:104EB000DC012C931C820E94C1FFF82ECE010196CA
:104EC0000E942D35FF2089F080EC93E00E94683726
:104ED000C8010E94823C10924B1010924C1010920C
:104EE0004D1010924E100C94403388EA93E00E94CB
:104EF0006837F80181918F01882319F00E9461378A
:104F0000F8CF8EE20E9461370C9440338091060EF8
:104F100081110E94FDB58091070E882311F40C9435
:104F2000403380E50E949A61882319F00E94254E43
:104F300003C080E50E945161182F482F61E08091E5
:104F40009803909199030F947E1483E50E949A61CF
:104F5000882381F00E94F960AB01BC0140934B10A3
:104F600050934C1060934D1070934E108AE99FE05F
:104F70000E9473A38091070E882319F081E080932B
:104F8000060E11110C944033CECE8091980390916F
:104F9000990321E02093050E40E060E00F947E1419
:104FA0000C9440330E94155B6C8F7D8F8E8F9F8F8A
:104FB000BE016F5F7F4FCE014C960E9470E260E0B1
:104FC000CE0101960E94D16086E59EE20E9468377C
:104FD000BE016F5F7F4F8EEC93E00E9476378AE0D0
:104FE0000E9461370C94403383E50E949A618823C4
:104FF00011F40C9440330E940961E82E80E50E9470
:105000009A61882339F00E94F9608B0177FF04C010
:105010000C9440330DE010E0D02E89E40E949A6198
:10502000882361F00E94254E81110C946B338D2DE5
:105030000F94F71681112FC00C946B3389E40E94F2
:105040005161F2CF80E50E945161882311F40C94E4
:10505000403380E50E949A61882309F4B7C60E9414
:10506000F960162F83E50E949A61882309F4B0C67F
:105070000E94F9607B01C7010196039710F00C9420
:10508000403317FF02C00C944033812F0F94F71662
:10509000882309F4A1C685E59EE30E9468378BE763
:1050A00096E00E9468370C9440338091060E81117F
:1050B0000C94403380E50E94516181110C9480333F
:1050C0000C9440330E94645B0C9440330E940FB4F4
:1050D0000C9440330E944CE30C9440330E94E24D08
:1050E00081110C9440338091BE0B83FF02C00C945D
:1050F000403383E50E949A61882379F00E941A6107
:105100000F94AD2A8B01CB010E94CBA90635110566
:1051100024F40E940FB40E94209B0E944FB50C946F
:1051200040330E9495E00C9440338EE40E949A61D3
:10513000882311F40C9440330E94F9606093F80BBB
:105140007093F90B8093FA0B9093FB0B0C94403304
:1051500083E50E945161882359F083E50E949A619A
:10516000882319F00E94096101C080E08093BE0B82
:1051700086E59EE20E94683789EE93E00E946837D8
:105180008091BE0B882349F17FEDE72E73E0F72E67
:1051900000E010E020E08091BE0B90E0002E02C005
:1051A000959587950A94E2F780FF0EC0DD24D3948D
:1051B000D20E222319F08CE20E946137F70185910B
:1051C00094910E9468372D2D0F5F1F4FF2E0EF0E74
:1051D000F11C05301105F9F6E9CD8BED93E0E4CD36
:1051E000109264020C94403380EF93E00E94873762
:1051F00083E50E949A61882371F00E94096180937F
:10520000000290E0CD9714F40C9440338CE380932B
:1052100000020C94403386E59EE20E94683740917C
:10522000000250E060E070E089EF93E00E94686D5A
:105230008AE00E9461370C9440338091BE0B83FF5B
:1052400002C00C94403383E50E949A61882311F4D4
:105250000C9440330E941A610F94AD2A663971058F
:1052600014F066E970E07093D0136093CF130E943E
:105270008BC80C9440330E94C8DE0C9440330E94CB
:10528000E24D811109C080E094E00E9468370E94DD
:10529000D2A98AE00E9461371092E6120C9403347E
:1052A00083E50E949A61882311F40C9440330E9494
:1052B0000961182F90E0CD970CF01CE310938C033C
:1052C0000F94A2126B017C01212F30E0A8EEB3E015
:1052D0000F945929C60ED71EE81EF91EC0928803E6
:1052E000D0928903E0928A03F0928B030C944033AE
:1052F00080E50E949A61811106C083E50E949A614F
:10530000882361F006C00E94096181110C9440332A
:10531000F4CF0E94F9606F3F710510F06FEF70E0FD
:1053200070934206609341060C94403380E50E94DE
:105330009A61811106C010924206109241060C94A7
:1053400040330E94F960672B11F00C944033F3CF87
:105350008CE40E945161882381F00E941A616B01E4
:105360007C0120E030E0A9010F948F2B87FF0AC059
:10537000F7FAF094F7F8F09405C0C12CD12CE12C89
:1053800060E4F62EF7FAF094F7F8F094C8A2D9A2E8
:10539000EAA2FBA280E090E0A0E2B1E489839A83D4
:1053A000AB83BC8380E090E0ABE9B3E48D839E8364
:1053B000AF83B88780E090E0A0EAB1E489879A875C
:1053C000AB87BC8788E50E949A61882379F088E5DD
:1053D0000E949A61882319F00E941A6103C060E05C
:1053E00070E0CB0169837A838B839C8389E50E947B
:1053F0009A61882379F089E50E949A61882319F0DF
:105400000E941A6103C060E070E0CB016D837E836F
:105410008F8398878AE50E949A61882379F08AE5CC
:105420000E949A61882319F00E941A6103C060E00B
:1054300070E0CB0169877A878B879C871C8E1D8ED5
:105440001E8E1F8E8091F40C81110C94403320E04D
:10545000AE01445E5F4FBE016F5F7F4FCE0180960D
:105460000E94326C0C9440330E94D7C80E94A4B7AB
:10547000109242061092410668EE73E080E090E0E0
:105480000E940E6C60E083E094E00E9495600C94B2
:105490004033409390030C94403383E50E949A611B
:1054A0008823A1F00E941A6120E030E04AE754E42A
:1054B0000F9482250F94B22A609301027093020226
:1054C00080930302909304020C94403388E50E9479
:1054D000516181110C948D3389E50E9451618111D4
:1054E0000C948D338AE50E94516181110C948D33A7
:1054F00085E40E94516181110C948D330E94A4B700
:105500000C94403383E50E945161882311F40C947C
:1055100040330E941A6120E030E04AE754E40F94DF
:1055200082250F94B22A6093910370939203809323
:105530009303909394030C94403349E6C42E42E0C5
:10554000D42E5FEBE52E5BE0F52E10E0D6018D91B9
:105550006D010E945161882309F46DC0133009F078
:1055600063C00E941A614B015C0120E030E040EA18
:1055700051E40F941D2587FF4EC0A5019401609151
:10558000CB0B7091CC0B8091CD0B9091CE0B0F94E7
:10559000452A2B013C019B01AC01609101067091F1
:1055A000020680910306909104060F948225609371
:1055B0000106709302068093030690930406A301EC
:1055C000920160911D0670911E0680911F069091B8
:1055D00020060F94822560931D0670931E0680930B
:1055E0001F06909320066091ED057091EE05809165
:1055F000EF059091F0050F942125A30192010F94DE
:1056000082250F94B22A6093ED057093EE05809386
:10561000EF059093F0058092CB0B9092CC0BA0926B
:10562000CD0BB092CE0B07C00E941A61F7016083C8
:105630007183828393831F5FF4E0EF0EF11C1430BB
:1056400009F084CF0E94DAB50C9440330E94FDB576
:105650000E94B7F70C94403389EF94E00E946837BA
:1056600060E089EE94E00E940BDA61E082EE94E063
:105670000E940BDA61E087ED94E00E940BDA61E0B2
:1056800087EC94E00E940BDA60E08EEB94E00E94DD
:105690000BDA61E084EB94E00E940BDA61E08AEAC5
:1056A00094E00E940BDA61E082EA94E00E940BDA57
:1056B00061E084E994E00E940BDA61E086E894E01E
:1056C0000E940BDA60E087E794E00E940BDA60E06A
:1056D00089E694E00E940BDA60E083E594E00E94A2
:1056E0000BDA60E082E494E00E940BDA60E08DE285
:1056F00094E00E940BDA61E08AE194E00E940BDA08
:10570000BFC7009198031091990383E0F12C40E00A
:105710008150E9F0D8019C91292F2B7F2134C1F7CA
:1057200011962C912133A1F7913421F0953421F475
:1057300041E002C0FF24F39498012E5F3F4F89019E
:105740002F5F3F4FF80190819032C9F3E1CF44239E
:1057500021F086E59EE20E946837FF2021F08DEC63
:1057600095E00E946837C8010E94823C89C70E9468
:10577000D5F886C781E080933C0480933B0480C7C2
:1057800010923C0410923B047BC783E50E949A610F
:10579000882319F00E94F96002C060E070E08B017C
:1057A0001127023011054CF085E59EE30E94683711
:1057B00081ED95E00E94683763C788E40E949A6192
:1057C0008823A9F00E94F9606A3A71053CF06530BF
:1057D000F1E07F072CF064E071E002C06AEA70E05B
:1057E000F801EE0FFF1FE858FC4E7183608386E4DA
:1057F0000E949A618823A9F00E94F960F801EE0FD7
:10580000FF1FE059FC4E718360836F3F710519F0F3
:1058100014F06FEF70E077FF02C060E070E071831A
:10582000608382E40E949A61882309F429C70E9458
:10583000F9606530710534F0683871052CF067E85F
:1058400070E002C065E070E0000F111FF801EC5835
:10585000FC4E7183608314C70E94E24D811110C712
:1058600084E40E945161882309F441C00E941A61B6
:105870006B017C0111E020E030E0A9010F941D25AF
:10588000811101C010E01093BC0C20E030E0A901B0
:10589000C701B6010F941D25882349F10E941A61A2
:1058A000E0918D0C24E0E29FF0011124EF53F34FBF
:1058B000608371838283938320E030E0A90160914B
:1058C000C10C7091C20C8091C30C9091C40C0F94C8
:1058D0001D2581110CC080E090E0A0EEBFE3809315
:1058E000C10C9093C20CA093C30CB093C40C0E9443
:1058F00075B2C6C6D7018D917D010E945161882382
:1059000049F00E941A610F94B22AF80160837183F2
:10591000828393830C5F1F4FFCE0053D1F0751F707
:105920000E947FB5ADC609E6E02E02E0F02E01E14F
:1059300016E0D7018D917D010E945161882339F0D5
:105940000E941A61F80160837183828393830C5FE4
:105950001F4FF6E001321F0761F792C683E50E94F0
:105960009A618823A1F00E941A61609309067093DE
:105970000A0680930B0690930C06609305067093BD
:105980000606809307069093080610E001C011E018
:1059900080E50E949A61882359F00E941A61609301
:1059A000090670930A0680930B0690930C0610E08C
:1059B00082E50E949A61882359F00E941A616093DF
:1059C0000D0670930E0680930F069093100610E05C
:1059D00084E50E949A61882359F00E941A616093BD
:1059E000050670930606809307069093080648C63E
:1059F000112309F445C64091090650910A066091A9
:105A00000B0670910C0689EF95E00E94796D40912C
:105A10000D0650910E0660910F067091100686EFEC
:105A200095E00E94796D40910506509106066091BF
:105A300007067091080683EF95E00E94796D8AE071
:105A40000E9461371DC682E40E945161882351F093
:105A50000E94154E609325067093260680932706B4
:105A60009093280683E50E945161882351F00E949B
:105A70001A6160933D0670933E0680933F069093B3
:105A8000400684E50E945161882351F00E941A610A
:105A90006093390670933A0680933B0690933C06D8
:105AA00088E50E945161882351F00E941A61609339
:105AB000F5057093F6058093F7059093F80589E551
:105AC0000E945161882351F00E941A616093F90588
:105AD0007093FA058093FB059093FC058AE50E947C
